:020000040000fa
:080000000001040000000000f3
:020000040000fa
:0400080012030000df
:020000040000fa
:04000c0012030000db
:020000040000fa
:0400100012030000d7
:020000040000fa
:0400140012030000d3
:020000040000fa
:0400180012030000cf
:020000040000fa
:04001c0012030000cb
:020000040000fa
:0400200012030000c7
:020000040000fa
:0400240012030000c3
:020000040000fa
:0400280012030000bf
:020000040000fa
:04002c0012030000bb
:020000040000fa
:0400300012030000b7
:020000040000fa
:0400340012030000b3
:020000040000fa
:0400380012030000af
:020000040000fa
:04003c0012030000ab
:020000040000fa
:0400400012030000a7
:020000040000fa
:0400440000030000b5
:020000040000fa
:04004800120300009f
:020000040000fa
:04004c00120300009b
:020000040000fa
:040050001203000097
:020000040000fa
:04005400380200006e
:020000040000fa
:04005800120300008f
:020000040000fa
:04005c00120300008b
:020000040000fa
:040060001203000087
:020000040000fa
:040064001203000083
:020000040000fa
:04006800120300007f
:020000040000fa
:04006c00120300007b
:020000040000fa
:040070001203000077
:020000040000fa
:040074001203000073
:020000040000fa
:04007800120300006f
:020000040000fa
:04007c00120300006b
:020000040000fa
:040080001203000067
:020000040000fa
:040084001203000063
:020000040000fa
:04008800d80100009b
:020000040000fa
:04008c00120300005b
:020000040000fa
:040090001203000057
:020000040000fa
:040094001203000053
:020000040000fa
:04009800120300004f
:020000040000fa
:04009c00120300004b
:020000040000fa
:0400a0001203000047
:020000040000fa
:0400a4001203000043
:020000040000fa
:0400a800120300003f
:020000040000fa
:0400ac00120300003b
:020000040000fa
:0400b0001203000037
:020000040000fa
:0400b4001203000033
:020000040000fa
:0400b800120300002f
:020000040000fa
:0400bc00120300002b
:020000040000fa
:0400c0001203000027
:020000040000fa
:0400c4001203000023
:020000040000fa
:0400c800120300001f
:020000040000fa
:0400cc00120300001b
:020000040000fa
:0400d0001203000017
:020000040000fa
:0400d4001203000013
:020000040000fa
:0400d800120300000f
:020000040000fa
:0401080012030000de
:020000040000fa
:04010c0012030000da
:020000040000fa
:0401100012030000d6
:020000040000fa
:0401140012030000d2
:020000040000fa
:0401180012030000ce
:020000040000fa
:04011c0012030000ca
:020000040000fa
:0401200012030000c6
:020000040000fa
:0401240012030000c2
:020000040000fa
:0401280012030000be
:020000040000fa
:04012c0012030000ba
:020000040000fa
:0401300012030000b6
:020000040000fa
:0401340012030000b2
:020000040000fa
:0401380012030000ae
:020000040000fa
:04013c0012030000aa
:020000040000fa
:0401400012030000a6
:020000040000fa
:0401440012030000a2
:020000040000fa
:04014800120300009e
:020000040000fa
:04014c00120300009a
:020000040000fa
:040150001203000096
:020000040000fa
:040154001203000092
:020000040000fa
:04015800120300008e
:020000040000fa
:04015c00120300008a
:020000040000fa
:040160001203000086
:020000040000fa
:040164001203000082
:020000040000fa
:04016800120300007e
:020000040000fa
:04016c00120300007a
:020000040000fa
:040170001203000076
:020000040000fa
:040174001203000072
:020000040000fa
:04017800120300006e
:020000040000fa
:04017c00120300006a
:020000040000fa
:040180001203000066
:020000040000fa
:040184001203000062
:020000040000fa
:04018800120300005e
:020000040000fa
:04018c00120300005a
:020000040000fa
:040190001203000056
:020000040000fa
:040194001203000052
:020000040000fa
:04019800120300004e
:020000040000fa
:04019c00120300004a
:020000040000fa
:0401a0001203000046
:020000040000fa
:0401a4001203000042
:020000040000fa
:0401a800120300003e
:020000040000fa
:0401ac00120300003a
:020000040000fa
:0401b0001203000036
:020000040000fa
:0401b4001203000032
:020000040000fa
:0401b800120300002e
:020000040000fa
:0401bc00120300002a
:020000040000fa
:0401c0001203000026
:020000040000fa
:0401c4001203000022
:020000040000fa
:0401c800120300001e
:020000040000fa
:0401cc00120300001a
:020000040000fa
:0401d0001203000016
:020000040000fa
:0401d4001203000012
:020000040000fa
:0401d800120300000e
:020000040000fa
:100200002fe920000eff20000e01880000000000f2
:10021000000020000000e000020032000001200089
:100220002002880014000700750107000000e000ac
:1002300003003a00200b24000100200002003700d8
:100240000000200001002000810f7000010032003a
:1002500014000700000020000000e000020032004f
:100260000000020000000000063c02000000000048
:100270000040da000000fe004440a90000a2210076
:100280000000e0000300320000002000a001880010
:100290004440a800000006008a1f78008b1f7800e9
:1002a0000000060091018800800478000000eb0047
:1002b0001a003700e284440032a0b4009905ba0065
:1002c000e284440032a0b4009906ba00e2844400fb
:1002d00032a0b4000006eb00476fde00fd07b2005d
:1002e000636ce10003003a00ebff07000000eb0045
:1002f0000a003700606ce10004003a00005deb008a
:100300008b05e900fdff3e00040037006168e10055
:10031000010032000086eb000b00070019c7ba008d
:100320001905ba000e04e00003003a000a00e000dc
:10033000e0ff3a0000000600fe07b2009e018800c0
:100340008a047800f5ff3700395dba008b05e900b3
:100350000c003200295dba008b05e900080032006c
:100360000c00e00003003a00e284440032a0b40034
:10037000f5ff370019ddba008b05e900faff3a00f6
:100380008904e800e184440032a0b40000000600c3
:10039000000000000000000000000000000000005d
:1003a000000000000000000000000000000000004d
:1003b000809fbe000200fa00e0108000004f78002d
:1003c0001e00fb00801088001e407800ed4f50009a
:1003d00003003a00e0c2b300004f7800200037006d
:1003e0001e407800ea4f500006003a00f0c5b30006
:1003f000004f780053c8bf000040e90053e8b70041
:1004000017003700e0c3b3009e40780080cf500053
:1004100004003a0053c8bf000040e90053e8b700a9
:100420000f00370000c2b3009e40780080cf50001c
:1004300003003a00d0c2b300004f78000800370034
:1004400052c8bf008080fb00a082200000804000d6
:100450001e48780052c8bf000040e80052e8b700cc
:100460008700a9000080fa004f00be00004006008f
:10047000809fbe00829fbe00849fbe00869fbe00fc
:10048000889fbe000200fa0000148000a04288008d
:10049000a142800000802f0000804000a042880020
:1004a000a04280006101b90040688000c200dd0008
:1004b000601e2a00008040001000be00009ab900b3
:1004c00004027800028cb90088027800050242001c
:1004d0000010b8000102420084007800b042880099
:1004e000c1428800b0428000c14280004109dd0065
:1004f0004f03de0006037100cf8bde00b64288009a
:10050000c74288000000eb00000f78001c00370095
:100510001e007800c200dd00e0aa2000008040003c
:100520001003be00b2428000c34280001e0078006b
:10053000c200dd0060852000008040001000be0089
:10054000009ab90004027800028cb9008802780091
:10055000050242000010b800010242008400780049
:1005600006004000878048001e017800c211dd00af
:10057000e2aa2000028141000089be001e0fe800af
:10058000500920009e007800808f5000e0ff34006a
:1005900040092000000f78000b0037001e01e80022
:1005a0001e007800c200dd00608520000080400051
:1005b0001000be00c211dd006285200002814100f2
:1005c0000089be001e0fe9001e0078000000e00058
:1005d000f2ff3d00406880000000e80040688800ad
:1005e0008560a9000080fa004f04be004f03be00e2
:1005f0004f02be004f01be004f00be00004006008b
:10060000801f78000000fa00206b80000000e900e5
:10061000206b880084e0a9000080fa004f00780079
:10062000004006000040da000000fe000a00fa0068
:1006300011002000b1bf9f00c0bf9f006a8057001b
:10064000b80b07004fb897000080fa0000000600c2
:100650000a00fa00e20f500034003e00707480007f
:10066000e10f500003003200e20f500011003a0089
:100670000c003700c32020000300e00001003a0016
:100680000040da000c02e200020035001422ef0004
:100690000de2a8000f42ab000d003a000f42a80087
:1006a0000b003700632120000300e00001003a0046
:1006b0000040da001602e200020035001e22ef00c0
:1006c00017e2a8001942ab0001003a001942a80045
:1006d000820178000b0037003102fb00e10f50006f
:1006e00004003a000f22ab00feff3a00841088009d
:1006f000030037001922ab00feff3a00d410880037
:100700008301e9000300e000f3ff3a00e10f50002d
:1007100003003a000f02ab00feff32000b0037006f
:100720001902ab00feff3200080037003300200042
:10073000b3bf9f00c0bf9f00d1bf9f00e2bf9f001b
:100740006a805700790b07006fb9970002007800a4
:100750000080fa00000006000a00fa0051002000a4
:10076000b1bf9f00c0bf9f006a805700710b070098
:100770005fb897000080fa0000000600889fbe0066
:1007800080047800807480000000e00004003a00db
:100790000e0007000084eb000000e00008003500b8
:1007a000887480000900e000050032000900440060
:1007b000060007000000e00001003d000084eb009f
:1007c000080078004f04be0000000600800078009a
:1007d0000100e00003003a0000002000807488005f
:1007e000000005000080eb0002002000828f500016
:1007f00002003e00817488000000eb00000006004b
:100800000000050003f0a200889fbe008a9fbe0082
:100810008c1f78000f010700160133006450e100bf
:100820004f0032006420e1005200320003826c006d
:1008300007003b000905d0000306d000820f5400da
:100840000c065d00020039000200320089017800c8
:10085000030678008582550004003d000003fd007a
:100860008103fd008502ea008b854200840f72003f
:1008700002003b0060001000e08018006011b8002a
:100880000005eb007a28e1000a0039000600780034
:10089000c75ddd00f707b200878075002d003700c7
:1008a000828171000a017800610560008180d100b9
:1008b0000080d3008502e900f9ff3b0006044000f8
:1008c0008784480002003b0060041400e0841c00a0
:1008d0000988a300070032008a81710082817100bb
:1008e000610164008904d1000884d3008b05e8000d
:1008f000170037000978a30013003a000b00e0004e
:10090000130034008b05e9000804440089844c007e
:100910000a4474000978a3000d003a000b00e000bf
:10092000070034008b05e9000804440089844c006a
:1009300001003a000b0020000978a300f7ff320005
:100940000001eb0002003700828171000a0178008b
:10095000850007000cf0a70001f0a000ce003700d2
:100960006420e10002003a00838f6c00ce00330067
:100970000801be000200be00c7003700889fbe000d
:100980008a9fbe008c1f7800b2000700b9003300b8
:1009900003866c006450e1002e0032006420e10008
:1009a000330032006150e1002f0032006120e1008d
:1009b0003100320085855500eb07b00009002000aa
:1009c00008042000050037000804440089844c0016
:1009d0000a0031000603430087834b0000015300e7
:1009e00081815b00f8ff33000203be000800a00015
:1009f0000804440089844c00f6ff3900c639dd0044
:100a00008301730001003200130020008904d1002b
:100a10000884d3000998a300050032000800a7004d
:100a20000300a0008904d1000884d3008b05e800ee
:100a30008904d1000884d3000001eb000281d200b8
:100a40004900070001f0a1000cf0a70001f0a00090
:100a5000910037006420e100930032000801be00dd
:100a60000200be00f7ff37006120e1008e00320077
:100a70006000b800f3ff37000000200001f82700f5
:100a8000f0ff3700839f68000100e00002003d0096
:100a900060001000e08018000300e00002003d004c
:100aa00060011100e0811900b60007004f00e0006e
:100ab00002003b0060001000e0801800000006000b
:100ac00014002000bf003700f4ff2f00bd003700e6
:100ad0000001be004a0007000470a70003f0a10057
:100ae0006509b100160032000d0035006828e100ec
:100af00006003500f0ff2f00f1ff27000300e000a3
:100b000013003b0001002800000005000000400029
:100b1000818048008502e900fcff3a0008003700a8
:100b2000f88f420002003c008000eb00000005004e
:100b30008100d1000080d3008502e800fcff3a006c
:100b40000300e00002003b0060001000e08018009d
:100b5000000006004f89de0082017800b4003700f3
:100b60006011b800c200370081002000618055008c
:100b70000b003d000b00200061fe2f000100e10092
:100b80001d00340082817100610164008904d1007c
:100b90000884d3000000e800faff3a00710020004a
:100ba0006100640003007000020060000900320070
:100bb00061044400e0844c000988a500050032006f
:100bc0008b05e8006808e10002003a008904d100c2
:100bd0000884d300f20f20000258e10005003d0018
:100be000c75ddd00f907b200898075000800780054
:100bf000000006000bf827008b00780000000500bd
:100c0000c70ade00f107b200f50fb200080032009b
:100c1000e1cf4200020032000170a0002400050074
:100c2000810f700001003200040805004400050037
:100c3000810f700002003a00140005008502e900ef
:100c40000000400081c04800fcff3b000170a00094
:100c5000240005000004be00e9ff07000003be00f9
:100c60000405be000200be00e5ff0700844f7500ca
:100c7000000006000200be006450e10005003600de
:100c80006420e100020036000968a30001003a0078
:100c90000800be000160a0004f0678004f05be00ae
:100ca0004f04be0000000600f0ff2f00f1ff2700f8
:100cb000f9ff3700889fbe008a9fbe008c1f780016
:100cc000e4ff0700ebff330003866c006450e10093
:100cd000240032006420e100270032006150e1006e
:100ce000220032006120e100210032008b854200a9
:100cf000eb07b1000134b800003ab8000804420024
:100d000089844a00013ab8000030b8008880400069
:100d100009014a00040033000000400081804800bf
:100d2000020149008b05e900c909dd00830170005b
:100d30000100320013002000c814de004814dd005a
:100d40004709de001200b200c808de000884700007
:100d500085ff070001f0a1000cf0a70001f0a00042
:100d6000cdff37006120e100cfff32000801be0057
:100d70000200be00f7ff37006150e100fcff3a00bf
:100d8000c9ff37006022b800060220000000d00032
:100d90008180d2000482d2008582d2000000a000af
:100da0000202520083825a00030031000202420014
:100db00083824a000000a1000603e900f3ff3a0025
:100dc00000000600889fbe008a9fbe00841f780036
:100dd000a0ff07004f00780011003300f0ff2f0044
:100de000838f6c0006003b00040565000a00a70025
:100df0000800370009f0a6001000200008003700a6
:100e0000820f5400838f5c00030039001000200023
:100e100001003e000000200009f0a7000000ea00e9
:100e20004f05be004f04be000000e00000000600b9
:100e3000881f7800030478000300e00007003d00ed
:100e400060001000e080180060011900e0811900c6
:100e500002003b0001f02d000300370004000700f2
:100e600008f0a70001f0a0004f0478000000060081
:100e7000889fbe008a9fbe0000827000040271003d
:100e800004827100260032000004be000200be0091
:100e90006011b8006b092000950220000182cf008c
:100ea0000a0039000541b1000082cf000700390077
:100eb0000541b1000982cf00040039000541b100ad
:100ec0000882cf00010039000541b10005425200ff
:100ed000120032000a003b0082817100610164004f
:100ee0008100d1000080d3008984d3000884d3001e
:100ef0008b05e8000442e800f7ff3a0007003700de
:100f00000804440089844c000000480081804800a7
:100f10008b05e9000442e900f9ff3a0012ff0700df
:100f20004f05be004f04be000000060001d920009e
:100f300080000700800078000080eb000100e000e6
:100f40000400350001d92000a000200002000700a5
:100f50004f80de0000000600889fbe008a1f7800d8
:100f60000004be00c900900069009000808f50000e
:100f70000500390009007800cd0007008080eb00f3
:100f80000000e00016003500084578004900900098
:100f900008587800c00498001900780000b8a30031
:100fa00004003a0000a8a30007003200ea4f5400f2
:100fb00005003a0009007800230007008080eb005c
:100fc0000000e00006003a0000c0200019006000a8
:100fd0000200320049009000e00498008a80fb0083
:100fe000010078004f0578004f04be0000000600a5
:100ff000881f780002047800080178009500070037
:10100000080040004f047800000006000000fa00cd
:10101000881f780000047800ea8157003fb99700e4
:1010200088007800807f20006d0107000000e0004c
:10103000020035008040eb00017478004f04780016
:101040000080fa0000000600889fbe008a1f78001a
:10105000000478000800e0000d003a00e8dd200000
:10106000700544008004eb00580078000000e000a8
:1010700004003200f4ff07000000e00001003d0022
:101080008084eb008a0f5400f7ff3a0025003700f8
:1010900000002200180060008004eb0021003200f4
:1010a000a80490000f00370009015100384090005b
:1010b0000000fb008900780065fd07000000e000eb
:1010c00007003c002800900040049800600498004d
:1010d000500c98001890a0008084eb00110037009d
:1010e0008084440048019000828f5400eeff390054
:1010f00028009000400498009800780002c020006a
:101100000281600001003a003800900001e8a3006d
:10111000020032006004980001003700500c980073
:101120008004eb00090078004f0578004f04be00f2
:1011300000000600889fbe008a9fbe0080047800e1
:10114000010478002c003700c8009000680090006f
:10115000808f500004003900080078005400070018
:101160000000e0003700350000402000180060005b
:1011700009003200a10020000900780042000700a9
:10118000800578000b00e000030032006185140048
:101190000a85450004003700090078003400070084
:1011a000000578008005eb0048009000e800900002
:1011b000808050008a8f50000200310001057800c5
:1011c0008005eb000a017800890078002100070003
:1011d000480090000a004000400498000b00e00026
:1011e000040032000800780097ff07000000e000cc
:1011f00014003a008a8444001904e000d2ff3a0047
:10120000008020001800600006003200080078000e
:101210008dff0700800078000080eb000100e000f7
:1012200009003a0001c02000988060000000eb0037
:101230000500320048009000600498000000eb00b8
:10124000010037000080eb004f05be004f04be00d8
:10125000000006008001780002003700b1597800d4
:101260000201e9000200e000fcff3a000000060075
:1012700080007800010178003104e000fdff3a00b1
:1012800000005100000006000001eb0000027800a1
:10129000b041780081cf510001003a00040178008c
:1012a0000304e000f9ff3a000200780000000600a5
:1012b000889fbe008a1f780000047800c800900054
:1012c000680190000000eb00828f50003c00390064
:1012d000180078002200290002016000e20f51008e
:1012e00007003200012024000000e00001003d0062
:1012f00001202000008c70000080eb0030003700df
:101300000200260002006000820f500009003a002f
:1013100038009000808f50000600390008007800e7
:1013200049ff0700800078000080eb000100e0002a
:1013300023003a001805780000c020000000650076
:1013400018003a00a8049000600220000800400045
:10135000808f540013003a0000202000c4050700cd
:10136000200498000000e00005003a0029049800dd
:10137000490498008904e8003904980008003700ff
:101380000a60a0000a0c78004004980001202000a8
:101390008080400031049800400c9800500c980068
:1013a0000c000700280090005004980038009000be
:1013b0006004980000002600180c70000000eb008c
:1013c0004f0578004f04be0000000600c0a82000b2
:1013d00061003700881f780088e820001804e000ca
:1013e00003003a00f9ff070020c0b300004c78006a
:1013f0004f04780000000600889fbe0000047800bb
:101400000800780010ff0700800478000004200026
:10141000180060000200320028009000c604070097
:101420000000eb0020049800384090000004e00029
:10143000050035000000fb007cfc07000000e00018
:10144000010032008084eb00181090000000e000e2
:1014500008003200c0fc07000000e000010032007c
:101460008084eb0018109000b30407000000eb002c
:1014700010149800000820001800600015003200c9
:101480000001eb006000b80003de20000202d00083
:1014900063027a00880f520005003a000000400005
:1014a00081804800008041000008eb000600370002
:1014b00061004000e08048000201e800e80f5000b1
:1014c000e08f5800f0ff3a00080078009a04070007
:1014d0000e003700000c780000c0eb00304498008c
:1014e000600220000800400020049800400498009a
:1014f00050049800400c980060049800500c98002c
:101500007004980076004400000c980009007800f0
:101510004f04be0000000600881f78000004eb00a6
:101520006140b800e2ff2f00f3ff2f0075090700ac
:10153000e2de2000620078000000e00001003200de
:10154000adff07000804e800e80f5400f4ff3a007c
:101550004f04780000000600010020000100e000b8
:1015600008003200010080000100e00005003200a8
:101570008100e900010088008100d00002008000a5
:1015800000b1780000000600889fbe0000047800cb
:101590000100780082047800880178000901780051
:1015a0001100200096040700890f5000010032004e
:1015b0000004eb00080078004f04be0000000600a5
:1015c0000000fa00e88157004fb9970001d92000c8
:1015d00040ac2000020007000080fa000000060076
:1015e0006200fa00889fbe008a1f7800000578001c
:1015f00081047800020478008300780080f92f00cd
:101600000f004000790707009a979f00a9979f0055
:101610000000eb00b09f9f001885fb008a04fb00d0
:101620000a05ea004f55de0050022000808f54006a
:101630000d003200e10f55000b003a000a0178005e
:10164000880078002f9097009f9197000300010079
:10165000a0979f000000e0008e0032003f989700a6
:101660000000e800b09f9f000a04440050022000e0
:10167000808f5400040032000900e000e6ff3a00c9
:101680003f989700840037000000eb00909f9f0078
:10169000809f9f00f0979f00e0979f00d0979f004a
:1016a000c0979f0007003700e1e7200001005000cd
:1016b0000000400021e7200061007800df989700db
:1016c00001007000d09f9f00880478000904780012
:1016d000384578008a00fb00e0e720001805070085
:1016e0000000e000f0ff3a00a1c2b300814f5500b6
:1016f0000e003a00cf8897000180e900c08f9f005c
:1017000010007800c09f9f000000e00005003d0031
:101710000000ea00c09f9f005f9897000020a00093
:10172000d09f9f000904e8000f003700c09f9f0072
:101730000000eb0005003700f2ff2700820f500089
:10174000020032006a01b9000280400009047800fa
:1017500088047800b900fb000103b100e98f500054
:10176000f5ff3600c09f9f00e0c2b300984f100005
:10177000020032000080eb0019003700a0c2b30065
:10178000d84f100007003a00cf8897000180e90089
:10179000c08f9f0010007800a09f9f000804e80001
:1017a000100037000000eb00a09f9f008800780029
:1017b00005003700f3ff2700830f500002003200be
:1017c0006a02b90004004100010478008800780032
:1017d0003101fb000203b100e90f5100f5ff3600b3
:1017e000a09f9f00984478008900fb00a0e620009d
:1017f000d30407000000e000020032000804e80003
:10180000010037008044eb00c97f9f0080c6b30011
:1018100080cf540004003a0098cf14000a003a0028
:101820006640500006003700c0c6b30080cf5400a9
:1018300005003a0098cf140003003a0065404000cc
:10184000c07f9f000804e8001801fb00e3fb2f00a5
:101850008f81410081f92f008f804000a0f92f0077
:101860000f004000100007000000e00009003a00ef
:10187000e1fb2f008f804000a0f92f000f004000f7
:101880001e0607000000e000020035000804e80022
:1018900061ff37000080eb004f0578004f04be0069
:1018a0000080fa0000000600889fbe008a1f7800b2
:1018b00000047800824478000305780070c6b30005
:1018c00080cf540021003c0000c0e90080cf5400cc
:1018d000d5003d007240500080cf54003c013200e2
:1018e0000d003c006c40500080cf54004f013c0084
:1018f00000c0e90080cf5400cb003d0050c2b300cf
:1019000080cf5400460132007c40400080cf54001c
:1019100046013a00c400370010c6b30080cf54001f
:10192000c100320004003c006940500080cf5400e8
:101930003e013a006900370030c6b30080cf540042
:10194000180032000040e8000900370000c7b3006b
:1019500080cf54001001320008003c0000c0e900b4
:1019600080cf5400d90032005c003c00654050003c
:1019700080cf54002d013a000f00370050c7b3004c
:1019800080cf5400550032006340400080cf5400a7
:10199000520032006540500080cf540023013a00cd
:1019a0000b0137001181e90082087800780090006f
:1019b000127578002301370028609000c2c6b3007a
:1019c000824f500007003a00110178006400510076
:1019d000800878001000be004f89de008201780088
:1019e0001400370012c7b300824f500003003a00c2
:1019f000110278006800520005003700a2c6b3004b
:101a0000824f500006003a00910278006880520030
:101a1000800878005001be004000be00050037007d
:101a20001180e9008008780010007800cf80de0087
:101a30006109b900009cbe000294be0028629000bb
:101a400085c6b300854f52000d00320025c6b30095
:101a5000854f520004003a000000fb00cf80de00fa
:101a60006109b9000800370045c7b300854f52002f
:101a700003003200e6c24200854f520004003a00e3
:101a8000cf80de006109b900009cbe000294be0058
:101a90003802be002803be0078009000d1c2b30017
:101aa000e00f5200e08f5a00e00f5b00e08f5b0018
:101ab00008003500881090000118a30002003200d1
:101ac000b1c2b300030037000108a3005100320087
:101ad00001c2b300017578004c0037002860900007
:101ae000c2c6b300824f500008003a0011037800cc
:101af00064005300800878001002be006033b80014
:101b00000400be000601be001400370012c7b30077
:101b1000824f500003003a00910278006880520022
:101b200005003700a2c6b300824f500006003a00fd
:101b30001103780068005300800878005001be004f
:101b40004000be00050037001180e90080087800e1
:101b5000100078008000eb006011b800009cbe000f
:101b60000294be002862900085c6b300854f5200e3
:101b70000d00320025c6b300854f520004003a0024
:101b80000080fb008000eb006011b8000800370007
:101b900045c7b300854f520003003200e6c2420041
:101ba000854f520004003a008000eb006011b8003d
:101bb000009cbe000294be00081090000038a300f4
:101bc000140032003800be002801be00e00f5000b3
:101bd000e08f5800e00f5900e08f59000d003200ef
:101be00080c7b30080cf54000300320080c5b3002b
:101bf00080cf540007003a007800900001c3b30082
:101c0000017578000000e800097578000000e80020
:101c10007004980078009000000545006a04980060
:101c2000894078006700370028619000c0c4b30085
:101c3000804f510006003a009103780068805300fd
:101c4000800878005001be004000be00050037004b
:101c50001101780064005100800878001000be0077
:101c6000df060700009cbe000294be00b800900092
:101c7000780090000100e00002003d00d1c2b300f6
:101c800008003700881090000118a30002003200fd
:101c9000b1c2b300030037000108a3000400320002
:101ca00001c2b300017578000000e80070049800dc
:101cb00078009000000545006a0498008900fb0048
:101cc0000800780065000700600037002861900078
:101cd000c3c6b3001180e900834f510022003200d7
:101ce0000a003c00e4c15100834f5100250032003e
:101cf00083c1e800834f510013003200e8c1510056
:101d0000834f51001e003a000a00370043c7b3005a
:101d1000834f51001b003200e6c14100834f510048
:101d200018003200e9c15100834f510014003a00fd
:101d3000050037008008780010007800485c9000ab
:101d400008487800410037008008780010007800cb
:101d5000680a9000cfa2de00612bb9000498be0093
:101d60000690be0039003700800878001000780027
:101d700068099000cf91de000288be003300370072
:101d80001180e9008008780010007800680c90004d
:101d9000080878002d0037001180e90080087800dd
:101da00010007800cf80de006109b900009cbe0001
:101db0000294be0078009000000545006a04980077
:101dc00081c7b300080078009d0307001f0037009b
:101dd0001180e90080087800100578006a049800f6
:101de000d80c90000900e00004003d000a007800d3
:101df0001ffd070080047800070037000901780004
:101e00008000eb000a007800430307000000e000b8
:101e1000010032008a045000190c98000b003700b2
:101e2000780090000975780006003700780090006f
:101e3000000545000904e00001003a0059c2b30062
:101e4000094d78000000e800700498000000eb00e5
:101e50004f0578004f04be00000006002f04b000bc
:101e6000889fbe008a9fbe008c9fbe008e1f780098
:101e70000007780081f79f003e04be002e05be00db
:101e80005e0890000000e00002003d0060002000bd
:101e9000500f98008e00780020fb2f000f004000ac
:101ea0003d030700e20f50000a003a003000200016
:101eb000100f9800b1c9b3000ff0970081404000a7
:101ec00040df2000e1cf50000d003e0000df200089
:101ed0000b0037000000e0000f003400300020004d
:101ee000100f9800b1c9b3000ff197008140410075
:101ef000c0df2000e1cf500001003e0080df200065
:101f0000ee009000b0487800b0687800104078008b
:101f100090409800f30037000000e00005003a0010
:101f200022fb2f000f014100001978008001eb0017
:101f3000e70037006022b8006033b8000800be0038
:101f40000a01be007d0507000000e00001003d0021
:101f50000bf0a200705927009f9897000088b900e5
:101f6000026a280013002000c6fa07006406500029
:101f70009c9f9f0013003b0063061600c0ff2f00cc
:101f8000000666008c01ea00939f9f000de0200090
:101f90000800be000a01be00070037000c08a300bd
:101fa000030032003d02be002d03be005a060700aa
:101fb0000c86d100e88646000c00e000f7ff3c00ec
:101fc000180037000c00e00018003200c0ff2f009e
:101fd000000666009c9f9f000de020006000b80096
:101fe0000200200003ff2300070037000c08a300b5
:101ff000030032003d02be002d03be00460607006e
:102000000c86d100e88646000c00e000f7ff3c009b
:102010000002be000203be000800be000a01be00ae
:10202000500507000004be000205be00de08900057
:1020300060c6b3000ff29700804f520004003200d8
:102040006000200062c4b300824f520002003a00d8
:102050009f9a97006a80420081004000f1b79f007c
:1020600001037800f30f5300020034003701200011
:10207000f7b79f0000c3b300c0779f0056fb2f0047
:102080000f0343000e007800a0b79f0006077800fa
:102090003d0037000800be000a01be00ef05070042
:1020a0000006be007fb1970068015100f2b79f00a3
:1020b0004240a9000c003400140607000002be00d4
:1020c0000203be000800be000a01be008806070029
:1020d0006022b80046782d00771924000e0607000c
:1020e0000004be000205be00e80047008e0020008c
:1020f0000802be000a03be00b4b79f00c5b79f0028
:10210000d6b79f00e7b79f000c01be00010478001e
:102110000c003700a400200005002000c0fd2f00a7
:102120000f0040000a0207006fa89700ffa8970061
:102130000fb197009fb1970005c3b300056441003c
:102140000001be00e00f5100e08f59000300340091
:102150000e07e900e10f4700eeff3a008800780023
:102160003fb49700cfb497005fb59700efb59700e5
:102170000200370000c3b300806078000e07e9005a
:10218000fcff3b00688740007fb397000600e0003b
:10219000070034006022b8006033b8000800be00b9
:1021a0000a01be00ea0407000000e000b9ff3c009d
:1021b0000e0378002fb7970051fb2f008f8040004f
:1021c000010353009f9b970067804300909f9f00ef
:1021d000020037000603e9000000e9000101780071
:1021e0008200780003c3b300b1cf1100f9ff3200c1
:1021f000909f9f00de09900061c6b3000ff2970028
:10220000814f52000300320061c4b300814f52007d
:1022100002003a000000e8000a0037001000200029
:1022200051c6b3008ff2970081cf520005003200f3
:102230000540780050c4b2000080fb000000e900b7
:102240004f00de0083014000868f51000100340002
:10225000860178000300e0001d00350000c3b300d4
:10226000868f510006003d0062c27900694040003f
:1022700041c3b300814f520001003c00694050004f
:102280008300e900810041000100370084017800eb
:102290000302e90001037800a142780080cf5200d8
:1022a000faff320091c3b300814f500001003a00a1
:1022b000054be8000400e00005003d000201e900d4
:1022c0008301e8001f9b97000603e800969f9f008c
:1022d0008ff397008700fb001f9a97000e0078008d
:1022e000060007004f0778004f06be004f05be00ee
:1022f0004f04be002f04b10000000600f087470025
:10230000889fbe008a9fbe008c9fbe008e1f7800f3
:1023100000047800814478000205be0004067800bd
:102320000b00e00002003c001b002000aae8200097
:1023300060c6b30080cf54000e00320060c4b3000a
:1023400080cf54000b00320070c6b30080cf540021
:102350000300320070c4b30080cf540081003a0003
:10236000e40f46007f00350058089000800f5600ab
:102370007c003d000c06e80060c6b30080cf54002e
:102380001000320060c4b30080cf54000d00320052
:10239000081090000038a30004003a00580890008c
:1023a000808f550001003d005b0c9800580890009c
:1023b0000c005000500c980002003b000000eb00a5
:1023c000500c980018089000e80090000c00e00005
:1023d00026003c0002c3b300827078000000e800d1
:1023e000100c9800d80890000100e00003003c00a9
:1023f000881090000138a30005003200e80090002a
:10240000e2c2b300827078000000e800100c98006f
:10241000580890008c00ea00810f500001003d0038
:102420000006ea008c00ea00210c98000006460035
:102430005c0c98008b0f5600010034000b067800ee
:102440003c0c9800e80090001808900000804000c4
:102450000c0178008a0078007efb07005808900085
:102460000c0650004c0c9800900037008c8f5500e3
:1024700018003d00008040000b0178008a007800c1
:1024800074fb07001808900000804500100c9800ad
:102490008b0556002b0c9800d80890000100e00036
:1024a00003003c00881090000138a30006003200b1
:1024b000e8009000e2c2b300827078003808900013
:1024c0000000e800300c980058089000400c98007c
:1024d00076003700008040000c0178008a00780008
:1024e0005cfb07001808900000004600100c9800e4
:1024f0008c855500d80890000100e00003003c00e6
:10250000881090000138a30005003200e800900018
:10251000e2c2b300827078000000e800100c98005e
:1025200058089000808f5500010034008005780025
:10253000e800900018089000008040008c004500e2
:102540000b01780043fb0700180890000b004000c7
:10255000100c9800580890008b0550002b0c980028
:102560005200370018089000e80090009a70780038
:102570000000e800100c9800d80890000100e0006e
:1025800003003c00881090000138a30005003200d1
:10259000e8009000e2c2b300827078000000e8001a
:1025a000100c9800580890000000e0001000340063
:1025b0008b05e900808f550001003400800578000c
:1025c000e800900018089000008040008a00e800b1
:1025d0000b0178001ffb0700180890000b0040005b
:1025e000100c9800580890008b0550002b0c980098
:1025f000e80090001808900000804000095878001a
:102600000007e8000c00e00004003500b1c2b30090
:10261000014878008e04780004003700d1c2b3006e
:10262000014878008e0478000c06ea007d8557008a
:102630008006eb0009003700a20020008c00780023
:1026400072805700310007007fb097008fb8970065
:10265000016d7800000678008d06e8000c00e000af
:10266000f5ff3c000d00e00009003a008e04780000
:1026700000c3b300805c7800050037008d06e900d8
:10268000fc80570061c07e0002c3b300825c400042
:102690000d00e000f9ff3c00e800900018089000f1
:1026a0000080400080845400390c9800081090008d
:1026b00074006000f00f50000e003a00980890007f
:1026c0007800900000804000a808900001004000c1
:1026d000b808900001004000c808900001004000c8
:1026e000f8089000810f500002003d00008050006b
:1026f000000c98004f0778004f06be004f05be0043
:102700004f04be000f01b1000000060080027800f7
:1027100001037800110009000203d800800178004d
:10272000830a78000299b9000201530092029800ce
:1027300005007800000006000000e0002f003200d5
:10274000c0017800e38f51002c0036000308a3007d
:102750002a003a00317480000100e00002003200db
:10276000810f50000400310011009800307488007f
:102770001600370082007800110190000200e0008e
:1027800002003200800f5100faff39001102780078
:1027900084824000850f500018003900808f52005d
:1027a00003003a0083084200010078000700370068
:1027b0000200e0000300320083014000830f51005b
:1027c0000e003900120098009000980090009000d0
:1027d0000100e0000900320010014000828f50002b
:1027e00006003a0042e820000009eb0010017800e2
:1027f00011084100910090001100980000000600af
:10280000889fbe008a9fbe008c9fbe008e1f7800ee
:102810000006780001047800020078008304780044
:102820000881b900020778000200e000420032008f
:102830000800e0004100320082057800c9009000e5
:1028400069009000808f5000040039000900780072
:1028500097fa07000000e000290035000040200042
:10286000190060000a0032000b017800a10020006e
:102870000c007800a8000700800678000d00e0003a
:1028800006003200610516000a8546000400370084
:102890000b0578008006eb00010037000b0578007f
:1028a00049009000e9009000808050008a8f50001d
:1028b00002003100010578008006eb000a01780073
:1028c0008c00780063fa07008a8555004900900063
:1028d0000a004000c00498000d00e000040032002f
:1028e00009007800d8f907000000e00004003a0071
:1028f0000b00e000020032000a064600cfff37005e
:1029000000802000190060000200320009007800f9
:10291000cdf9070000c0200019006000020032005d
:1029200049009000e00498008b0557001100090051
:102930008885d800010037000000eb004f077800c1
:102940004f06be004f05be004f04be00000006004b
:10295000881f78008a9fbe008c9fbe00000478000c
:102960000205be000406be000401be000a00be004f
:1029700044f80700008cbe000c01be006104070093
:102980000005550081855d002a0498003b049800ed
:10299000080078004f06be004f05be004f047800c7
:1029a00000000600889fbe000004780021748000ab
:1029b0000100e00002003200010078000d00370045
:1029c0003174800060e8200004003700910f54004b
:1029d000250036000180e800910090000100e00031
:1029e000faff3a0010003700920f54001e00360024
:1029f0000280e800100178000200e000faff3a00cf
:102a0000110178003174800060e820000400370074
:102a1000910f5400140036000180e80091009000ee
:102a2000828f5000faff3a0069748000888f54004a
:102a30000100310088047800090078004c0007008c
:102a40000000e00004003a00888f540005003200c6
:102a50008904d100f5ff37000918780036ff070018
:102a6000d2ff37000000eb004f04be00000006005c
:102a7000881f7800630440000800a1008000eb007c
:102a8000800f540021003600e30f540001003e0087
:102a90004800200008007800c2ff07008000eb001b
:102aa0000000e000190032009000780091017800e9
:102ab00064815100880f5100030031001101900022
:102ac00002087800070037000881400002087800fb
:102ad0009101900013019800100178001109140071
:102ae00088087800100178000000eb000200e00088
:102af00004003200920190000300e0000100320067
:102b00000280e800207488008180e80001007800dd
:102b10004f0478000000060003003700b0cf10001b
:102b2000050032000201e900800178000200e000a7
:102b3000faff3a00000005000300780000000600dc
:102b4000020037000304e0000600320000017800b4
:102b500002007800b041780081cf5100f9ff3a00bf
:102b6000010037000001eb000200780000000600c1
:102b7000800078000000eb000100e0000500340058
:102b800001007800fdf60700e10f400001003a0067
:102b90000000eb0000000600889fbe0000047800e3
:102ba000e68440001900d0004500de00f27f2000de
:102bb000820f500010003a00000ceb0099047800de
:102bc0006f816400200020001b003a00210190006a
:102bd0000200e00018003a00110190000200e0003d
:102be00015003a00100020001100e0001200320031
:102bf00020002000100037000000e00004003a0030
:102c000001007800fb0107000000e00008003c0024
:102c1000f20028001901610001fe2300810c7100ff
:102c200021c02f00010c40000080eb0002003700a3
:102c3000000ceb000000eb004f04be00000006009b
:102c4000fc874700889fbe008a9fbe008c9fbe0005
:102c50008e1f78000006780080c5b30080cf50003a
:102c60000a0032007740400080cf50000a00320056
:102c70006940400080cf50000b00320090e52000fa
:102c800080bf9f00ae0020000a00370082e42000d1
:102c900082bf9f000600370093e5200083bf9f009e
:102ca0008e0020000300370094e5200084bf9f00c1
:102cb0000e0120003c02be002c03be000605be0033
:102cc0000404be0040c6b30080cf500003003200b1
:102cd0006540400080cf50000b003a00e00f5200ea
:102ce000e08f5a00e00f5b00e08f5b0006003d00c4
:102cf0006000b8006011b8000404500085845800da
:102d00000605590087855900e80f57000400320076
:102d100040002000f00f570038003a000100370053
:102d200030002000e00f5400e08f5c00e00f5d00f9
:102d3000e08f5d0004003a00dc0890008d01200067
:102d40000100e000060032008e00e900888060008b
:102d50008fba9700e5c07800f1ef9f007d01200059
:102d6000800078008100e900050033008b05d10068
:102d70000a85d3008984d3000884d300f9ff370083
:102d8000089ebe000a96be00120037008d06e900bc
:102d90008e00e900848060000fb99700e2c17800de
:102da00082fd2f000f01410003f17e0080007800ba
:102db0008100e900050033008783d1000683d3003a
:102dc0008582d3000482d300f9ff3700049ebe0041
:102dd0000696be003c02be002c03be00e00f52006f
:102de000e08f5a00e00f5b00e08f5b008b00340047
:102df0000d00e000e5ff3c00880037002c609000eb
:102e000081c6b300814f50000b00320006003c0029
:102e10000004e00008003200e6c05000814f50007e
:102e20004e003a0004003700c1c6b300814f500085
:102e30004a003a00210037000800e00004003a0090
:102e40005c0890008d0120000000e00006003200c8
:102e5000110009000e84d8000fb99700e2c0780075
:102e6000f1ef9f007d012000110009000e84d800c1
:102e70000a003700110009000e04d8008d06e90091
:102e80000e81b900020454008fb8970061417c00a4
:102e900081fd2f008f80400082f07e0000047800ca
:102ea0000800e000020032000d00e000f1ff3c00ed
:102eb000cfc4de00614db90025003700e00f54009b
:102ec000e08f5c0004003a005c0890008d01200057
:102ed0000000e000070032006171b9000800be0088
:102ee000050307008fb99700e3417800f3ef9f00d7
:102ef0007d0120006171b9000800be00a1f7070044
:102f00000b0037006171b9000800be00ddf6070054
:102f10008d06e90000f1b900020454000fba9700d1
:102f2000e4427c0084fd2f000f02420005f27e0087
:102f30000004be00e00f5000e08f58000200320095
:102f40000d00e000efff3c004fcdde008a05780069
:102f5000089ebe000a96be0030003700e00f540005
:102f6000e08f5c00e00f5d00e08f5d0004003a0040
:102f70005c0890008d0120000000e0000900320094
:102f80006172b900612bb9000800be000a01be00e1
:102f9000820307000fba970064427800f4ef9f00a5
:102fa0007d0120006172b900612bb9000800be00ec
:102fb0000a01be00720307000d0037006172b900fc
:102fc000612bb9000800be000a01be0077030700ac
:102fd0008d06e90000f2b900040454008fba97008e
:102fe00065427c0085fd2f008f82420084f27e00c6
:102ff000009ebe000296be003c04be002c05be0032
:10300000e00f5400e08f5c00e00f5d00e08f5d009a
:10301000020034000d00e000e8ff3c00e80f57001c
:1030200010003a000c1090000038a3000d00320090
:10303000f78f560006003e0085fd2f008f8242006c
:10304000e5c07e0000c3b30080cf50000500320011
:103050008d06e90002c3b30081fd2f008f80400080
:1030600082f07e0078811600120e98006c009000ad
:1030700083fd2f008f8141008d80410075f807008e
:103080001c089000dc089000810f500006003d00f5
:1030900000805000000e98000c1090000040a1002d
:1030a000001698000f0037000100e0000d003d0001
:1030b0008c109000f4806000f08f500009003a00fe
:1030c0007c099000fc009000810051000c099000e8
:1030d00082805000008050004240a900010034006e
:1030e000000e98004f0778004f06be004f05be0047
:1030f0004f04be00cf01b100000006000400fa003a
:10310000889fbe008a9fbe008c1f78000004780054
:1031100001067800f80d9000780090008085550039
:10312000080890008085550018089000808555009b
:10313000280890008085550038089000808555004b
:1031400048089000808555000002220090bf9f0033
:1031500000032300a0bf9f00081090000028a300d8
:1031600015003a000b00e000130034000b05780056
:103170008a047800e20f5500010036002900200083
:10318000c801900009017800ee80570058009000b7
:1031900003000100500498000000e0008c003200a1
:1031a0006808900009004000600c9800090555006f
:1031b0004240a900eeff3c00780190000200e000d0
:1031c0000c003400c80190008c007800580090007a
:1031d00003000100500498008080eb000000e00034
:1031e0007c003200e80890007800900000804000e9
:1031f000600c9800880c90000900e0001100340079
:1032000009057800e28f5400010036002a002000f2
:10321000c80190000a017800ec8057005800900027
:1032200003000100500498000000e0006800320034
:10323000680890000a004000600c98008a845400de
:10324000edff3700180990000200e0000c00340088
:10325000c8019000e80090005800900003000100b1
:10326000500498008080eb000000e000590032001c
:10327000e80890001808900000804000600c98005a
:10328000a80c90000900e000110034000905780046
:10329000e28f5400010036002a002000c80190008f
:1032a0000a017800ec8057005800900003000100ec
:1032b000500498000000e0004500320068089000cb
:1032c0000a004000600c98008a845400edff37002b
:1032d000380990000200e0000e003400e800900081
:1032e0001808900080804000c801900058009000ad
:1032f00003000100500498008080eb000000e00013
:1033000034003200e8089000380890000080400047
:10331000600c9800c80c90000900e0001100340017
:1033200009057800e28f5400010036002a002000d1
:10333000c80190000a017800ec8057005800900006
:1033400003000100500498000000e000200032005b
:10335000680890000a004000600c98008a845400bd
:10336000edff3700081090008000eb000028a3005c
:10337000180032000b00e000160034008b047800c7
:1033800009057800e28f5400010036002a00200071
:10339000c80190000a017800ee80570058009000a4
:1033a00003000100500498000000e0000800320013
:1033b000680890000a004000600c98008a8454005d
:1033c0004240a900eeff3c008000eb000100370006
:1033d0008080eb00010078004f0678004f05be00aa
:1033e0004f04be000080fa000000060001087800cb
:1033f00000000600e60040001101780005002800ea
:10340000850261006f0161008208780002003200cd
:103410001200200011003700a001900012002000cf
:103420000300e0000d003a00900190000300e0006e
:103430000a003a001000e00008003a0036003700a9
:10344000640340009608780080017800530b7800f0
:10345000900978000408780070015100110278008a
:103460000400e000f6ff3200130037006402400061
:10347000140378004f33de0083814100830873001a
:1034800080017800d3037800cf3bde00140378007e
:1034900006034300068a7300130278000402420008
:1034a000100378004f33de00860972009001780027
:1034b000038841000201e90091017800ef8f51007b
:1034c000eaff3600100037008001780053037800cf
:1034d0004f33dd001002d100040873006402400085
:1034e00094037800cf3bdd001303d100868973007d
:1034f000110378004f33dd009401d100030a7300fb
:103500009108d1000201e80091017800ff8f51007d
:10351000edff3e00ef8861009188720002007800a4
:103520000000060000c0da000000060000c0da005b
:103530000000060000c0da00000006008f1fd10066
:10354000f70207008f87e9000000e0000000060096
:10355000809feb00f20207008f87e9000000e00087
:10356000000006002800fa00889fbe008a9fbe0067
:103570008c9fbe0003866b00800007006400e100a2
:10358000440032006408e1004a0032006100e100ba
:10359000460032006108e10049003200ec064700b5
:1035a0006000b8003d02be003d03be00f486570037
:1035b0006011b8003d04be003d05be007d03200043
:1035c0000b0037000000a0008d06e9001300320058
:1035d0000402420085824a0006034b0087834b00a9
:1035e00000004000818048000201490083814900b9
:1035f0000802520089825a000a035b008b835b0039
:10360000f0ff3b000802420089824a000a034b0097
:103610008b834b008d06e900edff3a008482720037
:1036200086827200f707b2008782720001003200c2
:10363000150020001e0490003e0b9000060354006d
:10364000e63fb0000368a300070032000000a700b7
:103650000500a0008301d1000281d3008180d30046
:103660000080d3000603e8008301d1000281d3006b
:103670008180d3000080d3000002eb000482d200de
:103680001200070003f0a1000cf0a70003f0a00057
:103690004e003700640247006408e1004800320031
:1036a0003400be003401be00f6ff37006108e100bf
:1036b000430032006011b8006000b800f1ff37002d
:1036c00003ff270002002000fbff37001800200046
:1036d00057002000080453000d003d0006002000a4
:1036e00097fc2f000740e1001e0034008482720026
:1036f000610260008301d1000281d3008180d30088
:103700000080d3000804e800f8ff3a0047002000da
:103710006104600005047400040464000d003200bc
:1037200061004000e080480060014900e0814900fc
:1037300003b8a500070032000603e8006538e10081
:1037400004003a008301d1000281d3008180d300bc
:103750000080d300f87f20000830e100030035002e
:10376000080378006000b8006011b8004433dd0041
:10377000f300b200830173000000060068044700f4
:103780000294be000094be00fc0447008694be0074
:103790008494be0009007800aa020700080078009f
:1037a000a802070099007800814f70000b003b00d1
:1037b0000800be00830207004f00b100030037007d
:1037c000f3ff2700f2ff2f006110b9004f06be0083
:1037d0004f05be004f04be000080fa000000060046
:1037e0008103780006f507000001be006000b80004
:1037f0000478a30013003a006220e10015003e00a7
:103800000d0039008301d1000281d3008180d300f3
:103810008301d1000281d3008180d3008301d100d4
:103820000281d3008180d3000538b000c42add00b6
:10383000f300b2008381720007f0a70003f0a0003c
:1038400000000600f3ff2700f2ff2f006110b9000f
:10385000fbff370003ff2700f7ff37001400fa00d3
:10386000889fbe008a9fbe008c9fbe000004be00e1
:103870000205be00680047000a90be000890be0026
:10388000700207000070a7000bf0a1003043200079
:103890009e02900080825200b0fe2f000028e100be
:1038a00011003d00b0fc2f000028e100150034009d
:1038b0001e0990008e0890007e0090000501b00067
:1038c0000201d1008180d3000080d3008502e8008e
:1038d000fbff3a000b00e000bcff3b006000100063
:1038e000e0801800b9ff3700f0ff2f00f1ff27003c
:1038f0000b00e000b5ff3b000100280000002000a5
:10390000b2ff37006000b800b0ff37004f89de001b
:1039100082017800720237002800fa00889fbe00fa
:103920008a9fbe008c9fbe0003866b0093ff07003a
:103930000028a30064003a000128a30067003a00b1
:103940000008a30062003a000108a30065003a00e5
:103950001e009000be08900081064000ed3fb100bf
:10396000f4805700ee019000111ab8008e09900003
:10397000311bb8009e099000311cb800511db800e1
:10398000f485570046000700fe0190003a0007004a
:103990008b85e8003e0007008e099000400007007c
:1039a000ee019000340007008b85e8003800070026
:1039b0008e099000400007009e0990001b18b80077
:1039c000890440000a854800fe0190003400070089
:1039d0008b85e80038000700ee01900030000700fa
:1039e0008e0990001b18b800890440000a85480021
:1039f0000a98a30008003a000402420085824a00a7
:103a000006034b0087834b0008044c0089844c005c
:103a10000a054d008d06e90084827200850273005c
:103a20004c3add00850272000100320015002000d2
:103a3000443ade001400b2004538de00cb45dd001c
:103a40000b007000c540de00cb4ddd008b807000a8
:103a50004549de00cb55dd000b017100c551de008c
:103a60000d03780019ff070003f0a1000cf0a70078
:103a700003f0a00055ff37001b18b8008502400076
:103a800006834800e0834b0060044c0007003700c9
:103a90001b18b8000603400087834800faff370070
:103aa0001b18b8008703400008844800e0844c00dd
:103ab00060054d00000006001b18b8000804400017
:103ac00089844800faff37000108a3003cff3a0050
:103ad0005800be005801be00e3ff37000008a300f5
:103ae00037ff3a0009047800f9ff370000000000b2
:103af00007f0a2000c013700a2f407000400be008a
:103b000000000600020ab900001bb9000200b8005c
:103b1000810042008100430000000600889fbe0033
:103b20008a9fbe0030044200b0844a0030054b003a
:103b300090854b006000b1000898be000a90be005e
:103b40000440e10005c8e10006d0e10007d8e1002b
:103b500002003100680040001008e8004f05be0078
:103b60004f04be0000000600889fbe008a9fbe0072
:103b70003004be002005be000418540005985c0007
:103b800006185d0007985d00110020000440e10068
:103b900005c8e10006d0e10007d8e10001003900c6
:103ba0008000eb00108810004f05be004f04be00df
:103bb000000006001200fa00889fbe008a9fbe0027
:103bc0008c9fbe00e0b79f00f1b79f0082bf9f00af
:103bd00093bf9f000605be000404be000000eb007a
:103be000d0b79f00c0b79f00b0b79f00a0b79f009d
:103bf00090b79f000006eb005fb19700cfb0970031
:103c0000820141003fb097000200e00004003d0047
:103c1000370007007e805700c0ff07000300370011
:103c2000330007007e805700cfff0700dfb6970004
:103c30000d00e0000c0035006fb29700ffb2970056
:103c40000fbb97009fbb97001000200001002000d1
:103c50006011b800000272008182720002037300da
:103c6000838373001b0007000c06e800010420009a
:103c7000810f5600e0ff3a000d00e00004003d0017
:103c80000802be000a03be007e805700a3ff0700a3
:103c90005fa897000000e00005003a001fb29700ff
:103ca000afb297003fb39700cfb39700090007006a
:103cb0006fb09700ffb097000fb997009fb99700ba
:103cc0004f06be004f05be004f04be000080fa0044
:103cd000000006000100070000000600a4b79f00d6
:103ce000b5b79f00c6b79f00d7b79f00000006007a
:103cf0004f09de0082817100b3b79f004f01de00e3
:103d00008180400082807000a1b79f008fb0970033
:103d10004f09de00000040000200700090b79f00d5
:103d20007fa897004f01de008180400082807000f4
:103d300081b79f000d0007004f3ade0000004000f1
:103d400004007000f0af9f0008000700040242006a
:103d500085824a0006034b0087834b00dfff070084
:103d60000802be000a03be00000006002fb2970042
:103d7000bfb297004fb39700dfb397000000060073
:103d8000881f780018002000881f780089ff07002e
:103d90008f87e9004f04780000000600801feb00c9
:103da00084ff07008f87e90000000600889fbe009f
:103db0008a9fbe00e00f5000e08f5800e00f5900ce
:103dc000e08f59000c003d006044b8006055b80019
:103dd0000000540081805c0002015d0083815d0071
:103de000180020001500070008003d00180007001b
:103df0000004eb00050037000004eb000f00070093
:103e000002003d001200070018002000dcff070040
:103e10000800e000060032006022b8006033b800fd
:103e20000000520081805a0002015b0083815b0028
:103e30004f05be004f04be0000000600e00f520018
:103e4000e08f5a00e00f5b00e08f5b00000006008f
:103e50006044b8006055b8000402540085825c00dc
:103e600006035d0087835d0000000600889fbe009a
:103e70008a9fbe008c1f7800e00f5000e08f580032
:103e8000e00f5900e08f59000d003d006044b8007c
:103e90006055b8000000540081805c0002015d00a4
:103ea00083815d001c0020000820e10009a8e100da
:103eb0000ab0e1000bb8e1000d003d00080037003a
:103ec0000006eb00e00f5200e08f5a00e00f5b00ad
:103ed000e08f5b0006003d006044b8006055b8000c
:103ee0000402540085825c0006035d0087835d0048
:103ef000aaff07000c00e000060032006022b800b4
:103f00006033b8000000520081805a0002015b005b
:103f100083815b004f0678004f05be004f04be0052
:103f200000000600000000002800fa00889fbe0084
:103f30008a9fbe008c9fbe000706780087866900b6
:103f40000c003b00030478008704780008f0a1000f
:103f500009f0a100840f5000858f5800860f59008a
:103f6000890f5c00030033000cf0a20001003a004e
:103f70000cf0a10001fe07006400e1005f003200c8
:103f8000780147006408e100610032006c014700dd
:103f9000748557003200be001201be003a04be0014
:103fa0001a05be001e039000be0a90008503530050
:103fb00006003d000004fd008104fd000205fd0037
:103fc0008305fd008703ea00050378000df8a300d0
:103fd0000400320060041400e0841c0060051d0031
:103fe000e0851d006022b8007d0320000d38e1004f
:103ff0008006eb000b0039004433dd00f300b20013
:104000008301730039003700848272000d0278004a
:10401000e10664008b85d1000a85d3008984d30032
:104020000884d3008703e900f7ff3b000800400045
:10403000898048000a0149008b81490004003b0047
:1040400060001000e080180060011900e081190094
:104050000358a300090032008d827200848272002e
:10406000610260008301d1000281d3008180d3000e
:104070000080d3000603e8001b0037000348a300bc
:1040800017003a000600e000170034000603e900bc
:104090000d00a30000004800818048000201490093
:1040a000838149000348a3000f003a000600e000a6
:1040b000090034000603e900000040008180480048
:1040c000020149008381490001003a000003eb002e
:1040d0000348a300f5ff32006022b8000200370059
:1040e000848272006182660078fd070003f0a100ff
:1040f0000cf0a70003f0a000b4fd370064014700f6
:104100006408e10002003a000df8a300acfd3a009b
:104110003200be001201be00acfd370000000000fe
:10412000889fbe008a9fbe008c9fbe000404be0014
:104130000605be00809fbe00829fbe002f000700c4
:10414000040678000800be000a01be002b0007002c
:10415000840678004f03be004f02be008d4f7600ec
:104160007fb0970013003300f0ff2f008b8f6b00a0
:1041700006003b000d0666000c00a7000a00370091
:1041800007f0a600100020000a003700880f520038
:10419000898f5a008a0f5b008b8f5b000300390008
:1041a0001000200001003e000000200007f0a700e2
:1041b0000000ea004f06be004f05be004f04be00df
:1041c00000000600e48240001078a30007003200df
:1041d000640240001178a3003400be001401be0048
:1041e000040032000330a700000006003500be00c6
:1041f0001501be000330a0000000060005ff2700e7
:1042000005826100070032000428e100010032004d
:10421000240005000600070001003a0044000500e4
:104220000408050002000700f9ff3a001400050029
:104230006f82610081027000850271008502720048
:1042400000000600800078005002be005003be004f
:104250004439de00f700b200f37f20000301610063
:10426000090032000218e10016003a0085017200d0
:1042700083017300838173000008200015003a0059
:104280004000200013003700850172008301730095
:104290008381730005003a0004a8be0006a8be0092
:1042a000100020000b0037000201e9000402420068
:1042b00085824a0006034b0087834b000748a30012
:1042c000f9ff32000740a00004a8be0006a8be0007
:1042d0002000200080009800920098000000060056
:1042e000881f7800030478000300e00007003d0009
:1042f00060001000e080180060011900e0811900e2
:1043000002003b0001f02d0003003700040007000d
:1043100008f0a70003f0a0004f047800000006009a
:10432000889fbe0000827000040271000482710048
:104330002400320036432000c50020008383cf00d4
:104340000a0039000541b1008283cf00070039001f
:104350000541b1008183cf00040039000541b1005f
:104360008083cf00010039000541b10085c35300af
:104370006022b800120032000a003b008482720002
:10438000610260008301d1000281d3008180d300eb
:104390000080d3000603e8008743e800f7ff3a00f7
:1043a00007003700000040008180480002014900fa
:1043b000838149000603e9008743e900f9ff3a00d9
:0c43c000c2fc07004f04be000000060015
:020000040000fa
:1043cc003d0a0000000000003e0a00000000000052
:1043dc003e0a0000000000003e0a00000000000041
:1043ec003f0a000000000000400a0000000000002e
:1043fc00420a000000000000430a00000000000018
:10440c00450a000000000000470a00000000000000
:10441c00490a0000000000004c0a000000000000e7
:10442c004e0a000000000000510a000000000000cd
:10443c00540a000000000000580a000000000000b0
:10444c005b0a0000000000005f0a00000000000092
:10445c00630a000000000000670a00000000000072
:10446c006c0a000000000000710a0000000000004f
:10447c00760a0000000000007b0a0000000000002b
:10448c00800a000000000000860a00000000000006
:10449c008c0a000000000000920a000000000000de
:1044ac00980a0000000000009f0a000000000000b5
:1044bc00a60a000000000000ad0a00000000000089
:1044cc00b40a000000000000bc0a0000000000005c
:1044dc00c40a000000000000cc0a0000000000002c
:1044ec00d40a000000000000dc0a000000000000fc
:1044fc00e50a000000000000ee0a000000000000c9
:10450c00f70a000000000000000b00000000000093
:10451c000a0b000000000000140b0000000000005b
:10452c001e0b000000000000280b00000000000023
:10453c00330b0000000000003d0b000000000000e9
:10454c00480b000000000000540b000000000000ad
:10455c005f0b0000000000006b0b0000000000006f
:10456c00770b000000000000830b0000000000002f
:10457c008f0b0000000000009c0b000000000000ee
:10458c00a80b000000000000b50b000000000000ac
:10459c00c30b000000000000d00b00000000000066
:1045ac00de0b000000000000ec0b0000000000001f
:1045bc00fa0b000000000000080c000000000000d6
:1045cc00170c000000000000260c0000000000008a
:1045dc00350c000000000000440c0000000000003e
:1045ec00540c000000000000630c000000000000f0
:1045fc00730c000000000000840c000000000000a0
:10460c00940c000000000000a50c0000000000004d
:10461c00b50c000000000000c60c000000000000fb
:10462c00d80c000000000000e90c000000000000a5
:10463c00fb0c0000000000000d0d0000000000004d
:10464c001f0d000000000000320d000000000000f3
:10465c00440d000000000000570d00000000000099
:10466c006a0d0000000000007d0d0000000000003d
:10467c00910d000000000000a50d000000000000de
:10468c00b90d000000000000cd0d0000000000007e
:10469c00e10d000000000000f60d0000000000001d
:1046ac000b0e000000000000200e000000000000b7
:1046bc00350e0000000000004a0e00000000000053
:1046cc00600e000000000000760e000000000000ec
:1046dc008c0e000000000000a20e00000000000084
:1046ec00b90e000000000000d00e00000000000019
:1046fc00e70e000000000000fe0e000000000000ad
:10470c00150f0000000000002d0f0000000000003d
:10471c00450f0000000000005d0f000000000000cd
:10472c00750f0000000000008d0f0000000000005d
:10473c00a60f000000000000bf0f000000000000ea
:10474c00d80f000000000000f10f00000000000076
:10475c000b100000000000002510000000000000fd
:10476c003e10000000000000591000000000000086
:10477c0073100000000000008e100000000000000c
:10478c00a810000000000000c31000000000000092
:10479c00de10000000000000fa1000000000000015
:1047ac001511000000000000311100000000000095
:1047bc004d11000000000000691100000000000015
:1047cc008611000000000000a31100000000000092
:1047dc00bf11000000000000dc1100000000000010
:1047ec00fa11000000000000171200000000000089
:1047fc003512000000000000521200000000000002
:10480c0071120000000000008f1200000000000078
:10481c00ad12000000000000cc12000000000000ef
:10482c00eb120000000000000a1300000000000062
:10483c0029130000000000004813000000000000d5
:10484c006813000000000000881300000000000046
:10485c00a813000000000000c813000000000000b6
:10486c00e813000000000000091400000000000024
:10487c002a140000000000004b140000000000008f
:10488c006c140000000000008d14000000000000fb
:10489c00af14000000000000d11400000000000064
:1048ac00f3140000000000001515000000000000cb
:1048bc003715000000000000591500000000000032
:1048cc007c150000000000009f1500000000000097
:1048dc00c215000000000000e515000000000000fb
:1048ec0009160000000000002c160000000000005b
:1048fc0050160000000000007416000000000000bc
:10490c009816000000000000bd160000000000001a
:10491c00e116000000000000061700000000000077
:10492c002b170000000000005017000000000000d2
:10493c0075170000000000009b170000000000002d
:10494c00c117000000000000e61700000000000086
:10495c000c180000000000003318000000000000dc
:10496c0059180000000000007f1800000000000033
:10497c00a618000000000000cd1800000000000088
:10498c00f4180000000000001b19000000000000db
:10499c0043190000000000006a190000000000002c
:1049ac009219000000000000ba190000000000007d
:1049bc00e2190000000000000a1a000000000000cc
:1049cc00331a0000000000005b1a00000000000019
:1049dc00841a000000000000ad1a00000000000066
:1049ec00d61a000000000000ff1a000000000000b2
:1049fc00291b000000000000531b000000000000f9
:104a0c007c1b000000000000a61b00000000000042
:104a1c00d01b000000000000fb1b00000000000089
:104a2c00251c000000000000501c000000000000cd
:104a3c007a1c000000000000a51c00000000000013
:104a4c00d01c000000000000fc1c00000000000056
:104a5c00271d000000000000531d00000000000096
:104a6c007e1d000000000000aa1d000000000000d8
:104a7c00d61d000000000000021e00000000000017
:104a8c002f1e0000000000005b1e00000000000054
:104a9c00881e000000000000b41e00000000000092
:104aac00e11e0000000000000e1f000000000000ce
:104abc003c1f000000000000691f00000000000007
:104acc00971f000000000000c41f00000000000041
:104adc00f21f000000000000202000000000000079
:104aec004e200000000000007d20000000000000af
:104afc00ab20000000000000da20000000000000e5
:104b0c000821000000000000372100000000000018
:104b1c00662100000000000095210000000000004c
:104b2c00c421000000000000f4210000000000007f
:104b3c0023220000000000005322000000000000af
:104b4c008322000000000000b322000000000000df
:104b5c00e32200000000000013230000000000000e
:104b6c00442300000000000074230000000000003b
:104b7c00a523000000000000d52300000000000069
:104b8c000624000000000000372400000000000094
:104b9c0068240000000000009a24000000000000bf
:104bac00cb24000000000000fd24000000000000e9
:104bbc002e25000000000000602500000000000011
:104bcc009225000000000000c42500000000000039
:104bdc00f62500000000000029260000000000005f
:104bec005b260000000000008d2600000000000085
:104bfc00c026000000000000f326000000000000aa
:104c0c0026270000000000005927000000000000cb
:104c1c008c27000000000000bf27000000000000ef
:104c2c00f327000000000000262800000000000010
:104c3c005a280000000000008d2800000000000031
:104c4c00c128000000000000f52800000000000052
:104c5c0029290000000000005d2900000000000070
:104c6c009129000000000000c6290000000000008f
:104c7c00fa290000000000002f2a000000000000ac
:104c8c00642a000000000000982a000000000000c8
:104c9c00cd2a000000000000022b000000000000e4
:104cac00372b0000000000006d2b000000000000fe
:104cbc00a22b000000000000d72b00000000000019
:104ccc000d2c000000000000422c00000000000031
:104cdc00782c000000000000ae2c0000000000004a
:104cec00e42c0000000000001a2d00000000000061
:104cfc00502d000000000000862d00000000000078
:104d0c00bc2d000000000000f32d0000000000008e
:104d1c00292e000000000000602e000000000000a2
:104d2c00962e000000000000cd2e000000000000b8
:104d3c00042f0000000000003b2f000000000000ca
:104d4c00722f000000000000a92f000000000000de
:104d5c00e02f0000000000001730000000000000f1
:104d6c004f30000000000000863000000000000002
:104d7c00be30000000000000f53000000000000014
:104d8c002d31000000000000653100000000000023
:104d9c009c31000000000000d43100000000000035
:104dac000c32000000000000443200000000000043
:104dbc007c32000000000000b53200000000000052
:104dcc00ed32000000000000253300000000000060
:104ddc005e3300000000000096330000000000006d
:104dec00cf3300000000000007340000000000007a
:104dfc004034000000000000793400000000000086
:104e0c00b134000000000000ea3400000000000093
:104e1c0023350000000000005c350000000000009d
:104e2c009535000000000000ce35000000000000a9
:104e3c0008360000000000004136000000000000b1
:104e4c007a36000000000000b436000000000000bc
:104e5c00ed360000000000002637000000000000c6
:104e6c0060370000000000009a37000000000000ce
:104e7c00d3370000000000000d38000000000000d7
:104e8c0047380000000000008038000000000000df
:104e9c00ba38000000000000f438000000000000e8
:104eac002e390000000000006839000000000000ee
:104ebc00a239000000000000dc39000000000000f6
:104ecc00163a000000000000503a000000000000fc
:104edc008b3a000000000000c53a00000000000002
:104eec00ff3a0000000000003a3b00000000000008
:104efc00743b000000000000ae3b0000000000000e
:104f0c00e93b000000000000233c00000000000012
:104f1c005e3c000000000000983c00000000000017
:104f2c00d33c0000000000000d3d0000000000001c
:104f3c00483d000000000000833d00000000000020
:104f4c00be3d000000000000f83d00000000000025
:104f5c00333e0000000000006e3e00000000000028
:104f6c00a93e000000000000e43e0000000000002c
:104f7c001e3f000000000000593f00000000000030
:104f8c00943f000000000000cf3f00000000000034
:104f9c000a40000000000000454000000000000036
:104fac008040000000000000bb400000000000003a
:104fbc00f64000000000000031410000000000003d
:104fcc006c41000000000000a74100000000000040
:104fdc00e2410000000000001e4200000000000042
:104fec005942000000000000944200000000000044
:104ffc00cf420000000000000a4300000000000047
:10500c004543000000000000804300000000000049
:10501c00bc43000000000000f7430000000000004b
:10502c0032440000000000006d440000000000004d
:10503c00a844000000000000e44400000000000050
:10504c001f450000000000005a4500000000000051
:10505c009545000000000000d04500000000000055
:10506c000b46000000000000474600000000000056
:10507c008246000000000000bd4600000000000059
:10508c00f84600000000000033470000000000005c
:10509c006e47000000000000aa470000000000005e
:1050ac00e547000000000000204800000000000060
:1050bc005b48000000000000964800000000000063
:1050cc00d1480000000000000c4900000000000066
:1050dc004749000000000000824900000000000069
:1050ec00bd49000000000000f8490000000000006d
:1050fc00334a0000000000006e4a0000000000006f
:10510c00a94a000000000000e44a00000000000072
:10511c001f4b0000000000005a4b00000000000074
:10512c00954b000000000000d04b00000000000078
:10513c000a4c000000000000454c0000000000007c
:10514c00804c000000000000bb4c00000000000080
:10515c00f54c000000000000304d00000000000085
:10516c006b4d000000000000a54d00000000000089
:10517c00e04d0000000000001a4e0000000000008e
:10518c00554e0000000000008f4e00000000000093
:10519c00ca4e000000000000044f00000000000098
:1051ac003e4f000000000000794f0000000000009e
:1051bc00b34f000000000000ed4f000000000000a5
:1051cc0027500000000000006150000000000000ab
:1051dc009b50000000000000d550000000000000b3
:1051ec000f510000000000004951000000000000b9
:1051fc008351000000000000bd51000000000000c1
:10520c00f7510000000000003152000000000000c7
:10521c006a52000000000000a452000000000000d0
:10522c00de520000000000001753000000000000d8
:10523c0051530000000000008a53000000000000e1
:10524c00c353000000000000fd53000000000000ec
:10525c0036540000000000006f54000000000000f5
:10526c00a854000000000000e15400000000000001
:10527c001a5500000000000053550000000000000b
:10528c008c55000000000000c55500000000000017
:10529c00fe55000000000000365600000000000023
:1052ac006f56000000000000a75600000000000030
:1052bc00e05600000000000018570000000000003d
:1052cc00515700000000000089570000000000004a
:1052dc00c157000000000000f9570000000000005a
:1052ec003158000000000000695800000000000068
:1052fc00a158000000000000d95800000000000078
:10530c001159000000000000485900000000000086
:10531c008059000000000000b75900000000000098
:10532c00ef59000000000000265a000000000000a9
:10533c005d5a000000000000945a000000000000bc
:10534c00cc5a000000000000035b000000000000cd
:10535c00395b000000000000705b000000000000e2
:10536c00a75b000000000000de5b000000000000f6
:10537c00145c0000000000004b5c0000000000000a
:10538c00815c000000000000b75c00000000000021
:10539c00ee5c000000000000245d00000000000036
:1053ac005a5d0000000000008f5d0000000000004e
:1053bc00c55d000000000000fb5d00000000000067
:1053cc00315e000000000000665e0000000000007e
:1053dc009c5e000000000000d15e00000000000098
:1053ec00065f0000000000003b5f000000000000b2
:1053fc00705f000000000000a55f000000000000ce
:10540c00da5f0000000000000f60000000000000e8
:10541c004360000000000000786000000000000005
:10542c00ac60000000000000e06000000000000024
:10543c001461000000000000486100000000000042
:10544c007c61000000000000b06100000000000062
:10545c00e461000000000000176200000000000082
:10546c004b620000000000007e62000000000000a3
:10547c00b262000000000000e562000000000000c5
:10548c0018630000000000004b63000000000000e7
:10549c007d63000000000000b0630000000000000d
:1054ac00e263000000000000156400000000000032
:1054bc004764000000000000796400000000000058
:1054cc00ab64000000000000dd6400000000000080
:1054dc000f650000000000004165000000000000a6
:1054ec007265000000000000a465000000000000d0
:1054fc00d5650000000000000666000000000000fa
:10550c003766000000000000686600000000000024
:10551c009966000000000000c96600000000000051
:10552c00fa660000000000002a670000000000007e
:10553c005b670000000000008b67000000000000ab
:10554c00bb67000000000000ea67000000000000dc
:10555c001a680000000000004a680000000000000b
:10556c007968000000000000a8680000000000003e
:10557c00d768000000000000066900000000000071
:10558c0035690000000000006469000000000000a4
:10559c009269000000000000c169000000000000da
:1055ac00ef690000000000001d6a00000000000010
:1055bc004b6a000000000000796a00000000000047
:1055cc00a76a000000000000d46a00000000000080
:1055dc00026b0000000000002f6b000000000000b8
:1055ec005c6b000000000000896b000000000000f4
:1055fc00b66b000000000000e26b00000000000031
:10560c000f6c0000000000003b6c0000000000006c
:10561c00676c000000000000936c000000000000ac
:10562c00bf6c000000000000eb6c000000000000ec
:10563c00166d000000000000426d0000000000002c
:10564c006d6d000000000000986d0000000000006f
:10565c00c36d000000000000ee6d000000000000b3
:10566c00186e000000000000436e000000000000f7
:10567c006d6e000000000000976e0000000000003e
:10568c00c16e000000000000eb6e00000000000086
:10569c00156f0000000000003e6f000000000000cd
:1056ac00676f000000000000906f00000000000019
:1056bc00b96f000000000000e26f00000000000065
:1056cc000b700000000000003370000000000000b0
:1056dc005b70000000000000837000000000000000
:1056ec00ab70000000000000d37000000000000050
:1056fc00fb700000000000002271000000000000a0
:10570c0049710000000000007071000000000000f2
:10571c009771000000000000be7100000000000046
:10572c00e5710000000000000b720000000000009a
:10573c0031720000000000005772000000000000f1
:10574c007d72000000000000a37200000000000049
