:020000040000fa
:080000000001040000000000f3
:020000040000fa
:040008002a020000c8
:020000040000fa
:04000c002a020000c4
:020000040000fa
:040010002a020000c0
:020000040000fa
:040014002a020000bc
:020000040000fa
:040018002a020000b8
:020000040000fa
:04001c002a020000b4
:020000040000fa
:040020002a020000b0
:020000040000fa
:040024002a020000ac
:020000040000fa
:040028002a020000a8
:020000040000fa
:04002c002a020000a4
:020000040000fa
:040030002a020000a0
:020000040000fa
:040034002a0200009c
:020000040000fa
:040038002a02000098
:020000040000fa
:04003c002a02000094
:020000040000fa
:040040002a02000090
:020000040000fa
:040044002a0200008c
:020000040000fa
:040048002a02000088
:020000040000fa
:04004c002a02000084
:020000040000fa
:040050002a02000080
:020000040000fa
:040054002a0200007c
:020000040000fa
:040058002a02000078
:020000040000fa
:04005c002a02000074
:020000040000fa
:040060002a02000070
:020000040000fa
:040064002a0200006c
:020000040000fa
:040068002a02000068
:020000040000fa
:04006c002a02000064
:020000040000fa
:040070002a02000060
:020000040000fa
:040074002a0200005c
:020000040000fa
:040078002a02000058
:020000040000fa
:04007c002a02000054
:020000040000fa
:040080002a02000050
:020000040000fa
:040084002a0200004c
:020000040000fa
:04008800c8010000ab
:020000040000fa
:04008c002a02000044
:020000040000fa
:040090002a02000040
:020000040000fa
:040094002a0200003c
:020000040000fa
:040098002a02000038
:020000040000fa
:04009c002a02000034
:020000040000fa
:0400a0002a02000030
:020000040000fa
:0400a4002a0200002c
:020000040000fa
:0400a8002a02000028
:020000040000fa
:0400ac002a02000024
:020000040000fa
:0400b0002a02000020
:020000040000fa
:0400b4002a0200001c
:020000040000fa
:0400b8002a02000018
:020000040000fa
:0400bc002a02000014
:020000040000fa
:0400c0002a02000010
:020000040000fa
:0400c4002a0200000c
:020000040000fa
:0400c8002a02000008
:020000040000fa
:0400cc002a02000004
:020000040000fa
:0400d0002a02000000
:020000040000fa
:0400d4002a020000fc
:020000040000fa
:0400d8002a020000f8
:020000040000fa
:040108002a020000c7
:020000040000fa
:04010c002a020000c3
:020000040000fa
:040110002a020000bf
:020000040000fa
:040114002a020000bb
:020000040000fa
:040118002a020000b7
:020000040000fa
:04011c002a020000b3
:020000040000fa
:040120002a020000af
:020000040000fa
:040124002a020000ab
:020000040000fa
:040128002a020000a7
:020000040000fa
:04012c002a020000a3
:020000040000fa
:040130002a0200009f
:020000040000fa
:040134002a0200009b
:020000040000fa
:040138002a02000097
:020000040000fa
:04013c002a02000093
:020000040000fa
:040140002a0200008f
:020000040000fa
:040144002a0200008b
:020000040000fa
:040148002a02000087
:020000040000fa
:04014c002a02000083
:020000040000fa
:040150002a0200007f
:020000040000fa
:040154002a0200007b
:020000040000fa
:040158002a02000077
:020000040000fa
:04015c002a02000073
:020000040000fa
:040160002a0200006f
:020000040000fa
:040164002a0200006b
:020000040000fa
:040168002a02000067
:020000040000fa
:04016c002a02000063
:020000040000fa
:040170002a0200005f
:020000040000fa
:040174002a0200005b
:020000040000fa
:040178002a02000057
:020000040000fa
:04017c002a02000053
:020000040000fa
:040180002a0200004f
:020000040000fa
:040184002a0200004b
:020000040000fa
:040188002a02000047
:020000040000fa
:04018c002a02000043
:020000040000fa
:040190002a0200003f
:020000040000fa
:040194002a0200003b
:020000040000fa
:040198002a02000037
:020000040000fa
:04019c002a02000033
:020000040000fa
:0401a0002a0200002f
:020000040000fa
:0401a4002a0200002b
:020000040000fa
:0401a8002a02000027
:020000040000fa
:0401ac002a02000023
:020000040000fa
:0401b0002a0200001f
:020000040000fa
:0401b4002a0200001b
:020000040000fa
:0401b8002a02000017
:020000040000fa
:0401bc002a02000013
:020000040000fa
:0401c0002a0200000f
:020000040000fa
:0401c4002a0200000b
:020000040000fa
:0401c8002a02000007
:020000040000fa
:0401cc002a02000003
:020000040000fa
:0401d0002a020000ff
:020000040000fa
:0401d4002a020000fb
:020000040000fa
:0401d8002a020000f7
:020000040000fa
:100200008f8620000eff20000e01880000000000f5
:10021000000020000000e000020032000001200089
:1002200020028800140007008c0007000000e00096
:1002300003003a00004020000100200002003700c7
:100240000000200001002000810f7000010032003a
:1002500014000700000020000000e000020032004f
:1002600000000200000000004a020200000000003e
:100270000040da000000fe004440a900a001200078
:100280000000e0000300320000002000a001880010
:100290004440a800000006008a1f78008b1f7800e9
:1002a0000000060091018800800478000000eb0047
:1002b0001a003700e284440032a0b4009905ba0065
:1002c000e284440032a0b4009906ba00e2844400fb
:1002d00032a0b4000006eb00476fde00fd07b2005d
:1002e000636ce10003003a00ebff07000000eb0045
:1002f0000a003700606ce10004003a00005deb008a
:100300008b05e900fdff3e00040037006168e10055
:10031000010032000086eb000b00070019c7ba008d
:100320001905ba000e04e00003003a000a00e000dc
:10033000e0ff3a0000000600fe07b2009e018800c0
:100340008a047800f5ff3700395dba008b05e900b3
:100350000c003200295dba008b05e900080032006c
:100360000c00e00003003a00e284440032a0b40034
:10037000f5ff370019ddba008b05e900faff3a00f6
:100380008904e800e184440032a0b40000000600c3
:10039000809fbe000200fa00ca02a800e0108000a0
:1003a000004f78001e00fb008010880066c8bf0068
:1003b0008080fb00e0832000008040001e48780021
:1003c00066c8bf000040e80066e8b7001e4078003d
:1003d000ed4f500003003a00e0c2b300004f780038
:1003e000170037001e407800ea4f500006003a0020
:1003f000f0c5b300004f780067c8bf000040e900b7
:1004000067e8b7000e003700e0c3b3009e407800f5
:1004100080cf500004003a0067c8bf000040e900e8
:1004200067e8b7000600370000c2b3009e407800be
:1004300080cf500002003a00d0c2b300004f7800d5
:10044000ca02a9008700a9000080fa004f00be0080
:10045000004006000040da000000fe000000050039
:020000040000fa
:100460000d0a0000206900006e6900006369000049
:10047000616c0000697a0000616e0000646f00002a
:100480002e2e00002e2000000d0a0000000a0000a1
:040490000000000068
:020000040000fa
:100494000000fa00170007003f00070047000700ac
:1004a4004f000700002328007700070056000700cc
:1004b400c7000700c6000700c5000700c400070006
:1004c400c3000700008020005a000700408020007d
:1004d40058000700a080200056000700508120002b
:1004e40054000700e08220005200070000000000d2
:1004f400feff37000000fa00d422ef0000000000e5
:10050400d622ef0000000000d222ef00c822ef0044
:1005140000000000ca22ef0000000000c622ef0025
:10052400000000000080eb0040158800ce22ef00a0
:1005340000000000d022ef0000000000cc22ef00f9
:1005440000000000cda2a80000000000cdc2a80059
:1005540000000000e022ef0000000000e222ef00b3
:1005640000000000de22ef0000000000de82a80090
:1005740000000000dea2a80000000000c6a2a8003f
:10058400d222a900c702a900d262a800d322a800df
:100594000080fa00000006000000fa00004220007b
:1005a400601088000000280070108800b00020004f
:1005b400a01088000080fa00000006000000fa0085
:1005c40000022000b010880000002800c01088003d
:1005d400b0002000f01088000080fa00000006003f
:1005e4000000fa008700a9008f00a8000de2a8000f
:1005f4000f42a8000000000017e2a8001942a8005a
:100604000080fa00000006000000fa00ca02a800f8
:10061400d622a8006e000700d622a90050000700c9
:10062400d622a80000000000ca02a9000080fa0037
:10063400000006000200fa00000f78008720a900dd
:100644001e00780010000700702428000e00070028
:100654001e0078002700070020c0b30067e8b70039
:100664006668ef00030037008007200080108800d0
:100674005700070067c8bf000004e000faff3c0011
:100684000080fa00000006000400fa001007980039
:100694000000eb00000f78000e0037001e00780009
:1006a4009e00900000804000104078000000fb0095
:1006b4008010880000000000210480000040200019
:1006c400008060000000e000fbff32008540a900cc
:1006d4001e0fe8001e0078009e009000008040007d
:1006e400104078000004e000ecff3a000080fa00bb
:1006f400000006000400fa00100798000000eb0058
:10070400000f78000e0037001e0078009e00900055
:1007140000804000104078000000fb00d0108800ea
:1007240000000000310480000020200000806000f0
:100734000000e000fbff32008720a9001e0fe80044
:100744001e0078009e009000008040001040780059
:100754000004e000ecff3a000080fa00000006000c
:10076400640009000000000000000600de0302002f
:1007740000000000de03020000000000de030200af
:1007840000000000de03020000000000de0302009f
:1007940000000000de03020000000000000006006c
:1007a4000900080002000000b80302000000000075
:1007b4000000000000000600801f7800c0cc20006c
:1007c4000000e900feff3a004f0078000000060038
:1007d400801f7800811f7800a10020000000eb003a
:1007e4000000e900feff3a008100e900fbff3a0047
:0c07f400cf0078004f00780000000600e5
:020000040000fa
:10080000000800003e0000000200000041540d00fe
:100810000041540045300d00004154002b434d0071
:1008200047463d00310d000041542b00434d470029
:10083000533d22002b35320035353400333631003c
:100840003230390034220d00005465006d706500af
:1008500072617400757261003a201a000d00000088
:100860003e0800002a000000000000000000000018
:020000040000fa
:0200000401f009
:04000000e0b9000063
:020000040000fa
:0200000401f009
:04000400ff7f00007a
:020000040000fa
:0200000401f009
:04000800feff0000f7
:020000040000fa
:0200000401f009
:04001400ffff0000ea
:00000001FF
